:100000000C942A000C9434000C9434000C943400AA
:100010000C9434000C9434000C9434000C94340090
:100020000C9434000C9434000C9434000C94340080
:100030000C9434000C9434000C9434000C94340070
:100040000C9434000C9434000C9434000C94340060
:100050000C94340011241FBECFE5D4E0DEBFCDBF29
:100060000E94CD000C94E4000C9400009BB3282F58
:10007000207F9F70922B9BBBDA98DB9AE7ECF0E035
:100080003197F1F700C00000DB98EFE1F3E0319722
:10009000F1F700C000002BB3F0E18F9FC0011124E5
:1000A000922F9F70892B8BBBDB9A87EC90E0019796
:1000B000F1F700C00000DB9808959BB3282F207F44
:1000C0009F70922B9BBBDA9ADB9AE7ECF0E03197BA
:1000D000F1F700C00000DB98EFE3FFE13197F1F7A3
:1000E00000C000002BB3F0E18F9FC0011124922FBC
:1000F0009F70892B8BBBDB9A8FE39FE10197F1F710
:1001000000C00000DB9808958CEF8ABBDB982FEFCE
:1001100083EC99E0215080409040E1F700C000005E
:1001200083E30E9436002FEF89EF90E0215080405A
:100130009040E1F700C0000082E30E9436002FEFFC
:1001400089EF90E0215080409040E1F700C000002E
:1001500088E20E9436002FEF89EF90E02150804026
:100160009040E1F700C000008CE00E9436002FEFC5
:1001700089EF90E0215080409040E1F700C00000FE
:1001800081E00E9436002FEF89EF90E021508040FF
:100190009040E1F700C0000008950E94840080EACA
:1001A00087BB81E58DB9C1E4CFB9709BFECF8FB11C
:1001B0000E945D002FEF83EC99E021508040904039
:0C01C000E1F700C00000F0CFF894FFCF82
:00000001FF
